:040000004BEF01F0D1
:10000800FACF2DF0FBCF2EF0E9CF2FF0EACF30F06A
:10001800E1CF31F0E2CF32F0D9CF33F0DACF34F09C
:10002800F3CF35F0F4CF36F0F6CF37F0F7CF38F01E
:10003800F8CF39F0F5CF3AF0F2B8F2A203D011ECCC
:100048000AF00BD0F0B6F0A003D00DEC0AF005D002
:10005800F0B8F0A202D009EC0AF0F2A469D0630E5D
:10006800D76EBF0ED66EF2940180010E0001B6273E
:10007800000E0001B7230001B8230001B923035083
:10008800D8B405D00306036602D0010E216E0450D1
:10009800D8B406D00406046603D0010E0001CB6F65
:1000A8004C50D8A44C064C50320AD8B401744C6653
:1000B80006D0640E4C6E01764D50D8A44D064B50B8
:1000C800D8A44B064B6603D00A0E4B6E0172025041
:1000D800D8B42ED0000E026E000E3D6E26D03D50D4
:1000E800020D0001A20EF324D96E0001000EF420C7
:1000F800DA6EDECF3BF0DDCF3CF03C503B10D8B49D
:1001080005D03B06D8A03C06010E026E3D50020DFC
:100118000001A20EF324D96E0001000EF420DA6E5D
:100128003BC0DEFF3CC0DDFF3D2A090E3D64D7D74A
:100138009EAA29D0AECF1EF05F0E1F5CD8B00DD09E
:100148001F50010D0101000EF324D96E0101010EAB
:10015800F420DA6E1EC0DFFF1F2A1F50010D0101B7
:10016800000EF324D96E0101010EF420DA6E000EA0
:10017800DF6E1E500D0AD8B41C2A1E500A0AD8B4C5
:100188001D2A0A0E036E9DB89EA819D02350010D92
:100198000001600EF324D96E0001000EF420DA6E1F
:1001A800DF50AD6E232A2350200AD8A402D0000EB7
:1001B800236E2206226603D0000E236E9D98A4AA01
:1001C8002DD071A202D07198718874CF26F05F0E7D
:1001D800275CD8B00DD02750010D0101600EF32423
:1001E800D96E0101010EF420DA6E26C0DFFF272A3E
:1001F8002750010D0101600EF324D96E0101010E93
:10020800F420DA6E000EDF6E26500D0AD8B4242AC8
:1002180026500A0AD8B4252A0A0E046EA3B8A4A840
:1002280019D02A50010D0001810EF324D96E000166
:10023800000EF420DA6EDF50736E2A2A2A50200A44
:10024800D8A402D0000E2A6E2906296603D0000E13
:100258002A6EA3983AC0F5FF39C0F8FF38C0F7FFF7
:1002680037C0F6FF36C0F4FF35C0F3FF34C0DAFFFD
:1002780033C0D9FF32C0E2FF31C0E1FF30C0EAFF2E
:100288002FC0E9FF2EC0FBFF2DC0FAFF11002EEF93
:0202980009F06B
:1006000000010010000001001049324320646576AB
:1006100069636520666F756E64206174206164642F
:1006200072657373203078252E325821004E6F206A
:10063000493243206465766963657320666F756E21
:10064000640A003031323334353637383941424369
:10065000444546000A493243205363616E6E657219
:10066000005363616E6E696E672E2E2E00646F6E8E
:10067000650A0000436E3AD2426603D09290899098
:1006800012004250020AD8A403D09280899012002E
:100690004250030AD8A405D09280000EC9EC09F09C
:1006A0001200928089901200426603D09292899241
:1006B00012004250020AD8A403D0928289921200FA
:1006C0004250030AD8A405D09282010EC9EC09F069
:1006D0001200928289921200426603D09294899409
:1006E00012004250020AD8A403D0928489941200C6
:1006F0004250030AD8A405D09284020EC9EC09F036
:100700001200928489941200426603D092968996D0
:1007100012004250020AD8A403D092868996120091
:100720004250030AD8A405D09286030EC9EC09F002
:100730001200928689961200426603D09298899898
:1007400012004250020AD8A403D09288899812005D
:10075000928889981200426603D0929A899A120070
:100760004250020AD8A403D0928A899A12004250B9
:10077000030AD8A405D0928A040EC9EC09F012002D
:10078000928A899A1200426603D0929C899C120038
:100790004250020AD8A403D0928C899C1200928CF9
:1007A000899C1200426603D0929E899E120042509C
:1007B000020AD8A403D0928E899E1200928E899E3E
:1007C0001200426603D093908A9012004250020AAF
:1007D000D8A403D093808A90120093808A9012004C
:1007E000426603D093928A9212004250020AD8A421
:1007F00003D093828A92120093828A9212004266F8
:1008000003D093948A9412004250020AD8A403D0D1
:1008100093848A94120093848A941200426603D0CF
:1008200093968A9612004250020AD8A403D0938667
:100830008A96120093868A961200426603D0939895
:100840008A9812004250020AD8A403D093888A984A
:10085000120093888A981200426603D0939A8A9A6B
:1008600012004250020AD8A403D0938A8A9A120036
:10087000938A8A9A1200426603D0939C8A9C120043
:100880004250020AD8A403D0938C8A9C1200938C05
:100890008A9C1200426603D0939E8A9E12004250A8
:1008A000020AD8A403D0938E8A9E1200938E8A9E49
:1008B0001200426603D094908B9012004250020ABC
:1008C000D8A403D094808B90120094808B90120057
:1008D000426603D094928B9212004250020AD8A42E
:1008E00003D094828B92120094828B921200426603
:1008F00003D094948B9412004250020AD8A403D0DF
:1009000094848B94120094848B941200426603D0DA
:1009100094968B9612004250020AD8A403D0948673
:100920008B96120094868B961200426603D09498A0
:100930008B9812004250020AD8A403D094888B9856
:10094000120094888B981200426603D0949A8B9A76
:1009500012004250020AD8A403D0948A8B9A120043
:10096000948A8B9A1200426603D0949C8B9C12004E
:100970004250020AD8A403D0948C8B9C1200948C11
:100980008B9C1200426603D0949E8B9E12004250B4
:10099000020AD8A403D0948E8B9E1200948E8B9E54
:1009A0001200426603D095908C9012004250020AC9
:1009B000D8A403D095808C90120095808C90120062
:1009C000426603D095928C9212004250020AD8A43B
:1009D00003D095828C92120095828C92120042660E
:1009E00003D095948C9412004250020AD8A403D0EC
:1009F00095848C94120095848C941200426603D0E6
:100A000095968C9612004250020AD8A403D095867F
:100A10008C96120095868C961200426603D09598AB
:100A20008C9812004250020AD8A403D095888C9862
:100A3000120095888C981200426603D0959A8C9A81
:100A400012004250020AD8A403D0958A8C9A120050
:100A5000958A8C9A1200426603D0959C8C9C120059
:100A60004250020AD8A403D0958C8C9C1200958C1D
:100A70008C9C1200426603D0959E8C9E12004250C0
:100A8000020AD8A403D0958E8C9E1200958E8C9E5F
:100A90001200426603D096908D9012004250020AD6
:100AA000D8A403D096808D90120096808D9012006D
:100AB000426603D096928D9212004250020AD8A448
:100AC00003D096828D92120096828D921200426619
:100AD00003D096948D9412004250020AD8A403D0F9
:100AE00096848D94120096848D9412004350000ACF
:100AF000D8B4C2D5010AD8B4D7D5030AD8B4ECD536
:100B0000010AD8B401D6070AD8B416D6010AD8B457
:100B100022D6030AD8B437D6010AD8B443D60F0A6E
:100B2000D8B44FD6010AD8B45BD6030AD8B467D676
:100B3000010AD8B473D6070AD8B47FD6010AD8B44C
:100B40008BD6030AD8B497D6010AD8B4A3D61F0A05
:100B5000D8B4AFD6010AD8B4BBD6030AD8B4C7D626
:100B6000010AD8B4D3D6070AD8B4DFD6010AD8B45C
:100B7000EBD6030AD8B4F7D6010AD8B403D70F0AC4
:100B8000D8B40FD7010AD8B41BD7030AD8B427D7D3
:100B9000010AD8B433D7070AD8B43FD7010AD8B46A
:100BA0004BD7030AD8B457D7010AD8B463D73F0A42
:100BB000D8B46FD7010AD8B47BD7030AD8A41200DF
:100BC00086D7000E0001F36F490E0001F26FE7D0E7
:100BD0000001FA51250AD8B40AD045C0D9FF46C051
:100BE000DAFF0001FAC0DFFF454A462AD8D0000EDE
:100BF0000001F06F47C0F6FF48C0F7FF0800F5504E
:100C00002E0AD8A423D0474A482A000E0001F96FC3
:100C100012D047C0F6FF48C0F7FF0800F5CFEEF04E
:100C20000001F9510A0DF3500001EE25D00F00012B
:100C3000F96F474A482A47C0F6FF48C0F7FF080047
:100C4000F550DAEC09F0D8A004D0E3D7000E00018B
:100C5000F96F47C0F6FF48C0F7FF474A482A080027
:100C60000001F5CFFAF00001FA51000AD8B4A4D07F
:100C7000580AD8B403D0200AD8A491D0F2C0D9FF22
:100C8000F3C0DAFF0001DECFF4F00001DDCFF5F0B4
:100C9000020E0001F227000E0001F3230001F967A4
:100CA00007D00001F551F411D8A402D00001F92BAE
:100CB000010E0001FA6F0001FA51040AD8B41CD0E9
:100CC0000001FA51020D010EF324F66E060EF42017
:100CD000F76E0900F5CFEEF00900F5CFEFF0000157
:100CE000EE510001F45D0001EF510001F559D8A06B
:100CF00003D00001FA2BDFD70001FA51800A00016E
:100D0000EE6F0001F951800A0001EE5DD8B003D00A
:100D1000F9C0FAF03ED00001F951800A0001EE6FEF
:100D20000001FA51800A0001EE5DD8B032D0FAC05D
:100D3000F9F02FD0F4C03EF0F5C03FF00001F951BA
:100D4000020D010EF324F66E060EF420F76E090074
:100D5000F5CF40F00A00F5CF41F0DCEC08F03E5052
:100D60000F0B0001F16F0001F151010D430EF3244F
:100D7000F66E060EF420F76E08000001F5CFFAF0CB
:100D800045C0D9FF46C0DAFF0001FAC0DFFF454A7F
:100D9000462A0001F9070001F929D8A4CBD747C09A
:100DA000F6FF48C0F7FF474A482A08000001F5CF80
:100DB000FAF00001FA670CD745C0D9FF46C0DAFF48
:100DC000000EDF6E12000001F66FEEC03EF0EFC0C5
:100DD0003FF0F0C040F0F1C041F00A0E426E000E4C
:100DE000436E000E446E000E456E6CEC08F03EC083
:100DF000EEF03FC0EFF040C0F0F041C0F1F0000E67
:100E00003E6E900E3F6ED00E406E030E416EEEC0F1
:100E100042F0EFC043F0F0C044F0F1C045F06CEC9C
:100E200008F03EC0EEF03FC0EFF040C0F0F041C02F
:100E3000F1F00001EEC0F2F00001EFC0F3F00001AC
:100E4000F0C0F4F00001F1C0F5F0030E06D000018F
:100E5000D890F533F433F333F233E82EF8D7F2C0F9
:100E6000EEF0F3C0EFF0F4C0F0F0F5C0F1F0050ED5
:100E70000001EE250001EE6F000E0001EF210001E0
:100E8000EF6F000E0001F0210001F06F000E000175
:100E9000F1210001F16FEEC03EF0EFC03FF0F0C075
:100EA00040F0F1C041F00A0E426E000E436E000E9B
:100EB000446E000E456E6CEC08F03EC0EEF03FC094
:100EC000EFF040C0F0F041C0F1F00001EE07000E7D
:100ED0000001EF5B0001F05B0001F15BEFC0F8F097
:100EE000EEC0F7F00001F605D8A405D0F8C0B0FFB9
:100EF000F7C0AFFF1200F8C076FFF7C075FF120011
:100F0000060E416E610E406EADEC08F0000E000161
:100F1000FD6F000E0001FC6F010E0001FE6F2AD074
:100F2000000E3F6E0001FE5155EC09F017EC0AF07F
:100F30000001FB6F0001FB671BD00001000E466E35
:100F40000001CE0E456E060E486E090E476E00017A
:100F5000FEC049F04A6AE1EC05F00001000E416E66
:100F60000001CE0E406EADEC08F00001FC4BFD2BF5
:100F70000001FE2B7E0E0001FE65D2D70001FD515F
:100F8000FC11D8A407D0060E416E2D0E406EADECBC
:100F900008F006D0060E416E6D0E406EADEC08F006
:100FA000130E3F6E880E3E6E9EEC09F01200700E1E
:100FB000D36E040ED26E400E9B6ED2AEFED7000EE4
:100FC0000F01386F000E0F01396F000E0F013A6FDD
:100FD000000E0F013B6F000E0F013C6FB00E0F01B2
:100FE000426F300EC16E830EC06E000E896E000E11
:100FF0008A6E000E8B6E000E8C6E000E8D6E000ED3
:101000003E6E0FD03E50020D0001A20EF324D96EA9
:101010000001000EF420DA6E000EDE6E000EDD6EB2
:101020003E2A090E3E64EED7000ED56EF294F28A87
:10103000F1849E90000ECC6E320ECD6E910ED56E68
:10104000F28CD08EF28E1200C78EC686C694C692DF
:10105000C690000E3E6E900E3F6ED00E406E030E98
:10106000416E0001EEC0F2F00001EFC0F3F00001AC
:10107000F0C0F4F00001F1C0F5F0020ED8900001CC
:10108000F237F337F437F537E82EF8D7F2C042F0ED
:10109000F3C043F0F4C044F0F5C045F06CEC08F048
:1010A0003EC0F6F03FC0F7F040C0F8F041C0F9F0A4
:1010B0000001F605C86E010E426E130E3AEC03F005
:1010C000010E426E140E3AEC03F0C69EC69CC68A10
:1010D000C584C5A41200FDD7000E466E000E476EF3
:1010E000000E486E000E496E4550421043104410E9
:1010F000D8B42AD0010E4A6E06D0D8904236433674
:10110000443645364A2A45AEF8D7D8904636473653
:101110004836493642503E5C43503F584450405850
:1011200045504158D8A009D042503E5E43503F5AE6
:101130004450405A4550415A4680D8904532443236
:10114000433242324A2EE1D746C03EF047C03FF01C
:1011500048C040F049C041F0120014D040C0F6FF32
:1011600041C0F7FFF86A050EF76403D00800F55098
:1011700005D0F6CFE9FFF7CFEAFFEF5005EC09F015
:10118000404A412A40C0F6FF41C0F7FFF86A050E09
:10119000F76403D00800F55005D0F6CFE9FFF7CF8C
:1011A000EAFFEF500009D8A4D9D70D0E05EC09F0DD
:1011B0000A0E05EC09F01200000E446E000E436E9C
:1011C00041504010D8B41CD0010E426E04D0D890CB
:1011D00040364136422A41AEFAD7D890433644369B
:1011E00040503E5C41503F58D8A005D040503E5E34
:1011F00041503F5A4380D89041324032422EEDD781
:1012000043C03EF044C03FF012003F6E2250D8B4BD
:1012100018D02250200AD8B4FCD7F29E22502324A2
:101220001F0B3E6E3E50010D0001600EF324D96E7F
:101230000001000EF420DA6E3FC0DFFF222AF28E9A
:1012400012009EA803D03FC0ADFF1200010E226E17
:10125000000E236E3FC060F09D88120001EE00F08A
:10126000C00EEE6AE806FDE100EE60F08E0EEE6A5A
:10127000E806FDE100EE01F02C0EEE6AE806FDE165
:101280002A0EF66E140EF76E000EF86E00EE4BF09E
:1012900010EE04F00900F5CFEEFFE550E150FAE161
:1012A000000EF86E0001F7EF09F0406E000E056EBB
:1012B000C580C5B0FED740504024FE0BC96EEAEC95
:1012C00009F0C5AC06D0C584C5B4FED7010E056EC5
:1012D00012003FC0C9FFEAEC09F0C5AC06D0C584D6
:1012E000C5B4FED7010E056E1200C584C5B4FED785
:1012F000000E056E1200800E0001F96F250E000130
:10130000FA6F000E0001FB6F000E0001FC6FB4ECE1
:1013100009F0A00E0001EE6F860E0001EF6F010EC6
:101320000001F06F000E0001F16F24EC08F0060ED2
:10133000416E540E406EADEC08F0120004000FD068
:101340003E06D8A03F06040E416E100E406E03D03C
:101350004006D8A0410641504010D8A4F9D73F50CC
:101360003E10D8B41200ECD7F9C0EEF0FAC0EFF09E
:10137000FBC0F0F0FCC0F1F0010EE3EC06F0B88623
:10138000240EAC6E900EAB6E9D8A9D989F889F8AAE
:101390001200406E40C03EF0010E3F6E3E2A02D069
:1013A000D8903F363E2EFCD73F50416E41500F0142
:1013B00038131200406E000E3F6E3A0E405CD8B0FB
:1013C00005D02F0E406402D0010E3F6E3FC03EF0AC
:1013D0003E301200C7A403D03E6A3E2A01D03E6AC6
:1013E000C5501F0B3E100009D8B41200F3D7D7EC3C
:1013F00007F07BEC09F0040003EC0AF080EC07F046
:1014000019EC0AF0F8D7019E01A012000190018E9C
:101410001200F0921AEC0AF01200F0901BEC0AF0A5
:101420001200F2921CEC0AF012000A643C0C055007
:0A1430001200120012001200120058
:020000040020DA
:08000000FFFFFFFFFFFFFFFF00
:020000040030CA
:0E000000FF251F3FFFBF85FF0FC00FE00F4021
:00000001FF
